{
  "contractName": "Election",
  "abi": [
    {
      "constant": true,
      "inputs": [],
      "name": "candidatesCount",
      "outputs": [
        {
          "name": "",
          "type": "uint256"
        }
      ],
      "payable": false,
      "stateMutability": "view",
      "type": "function"
    },
    {
      "constant": true,
      "inputs": [
        {
          "name": "",
          "type": "uint256"
        }
      ],
      "name": "candidates",
      "outputs": [
        {
          "name": "id",
          "type": "uint256"
        },
        {
          "name": "name",
          "type": "string"
        },
        {
          "name": "voteCount",
          "type": "uint256"
        }
      ],
      "payable": false,
      "stateMutability": "view",
      "type": "function"
    },
    {
      "constant": true,
      "inputs": [
        {
          "name": "",
          "type": "address"
        }
      ],
      "name": "voters",
      "outputs": [
        {
          "name": "",
          "type": "bool"
        }
      ],
      "payable": false,
      "stateMutability": "view",
      "type": "function"
    },
    {
      "constant": true,
      "inputs": [],
      "name": "stage",
      "outputs": [
        {
          "name": "",
          "type": "uint8"
        }
      ],
      "payable": false,
      "stateMutability": "view",
      "type": "function"
    },
    {
      "inputs": [],
      "payable": false,
      "stateMutability": "nonpayable",
      "type": "constructor"
    },
    {
      "anonymous": false,
      "inputs": [
        {
          "indexed": true,
          "name": "_candidateId",
          "type": "uint256"
        }
      ],
      "name": "votedEvent",
      "type": "event"
    },
    {
      "constant": false,
      "inputs": [
        {
          "name": "_candidateId",
          "type": "uint256"
        }
      ],
      "name": "vote",
      "outputs": [],
      "payable": false,
      "stateMutability": "nonpayable",
      "type": "function"
    },
    {
      "constant": true,
      "inputs": [],
      "name": "hasClosed",
      "outputs": [
        {
          "name": "",
          "type": "bool"
        }
      ],
      "payable": false,
      "stateMutability": "view",
      "type": "function"
    }
  ],
  "bytecode": "0x608060405260026000806101000a81548163ffffffff021916908363ffffffff160217905550426001556000600260006101000a81548160ff0219169083600381111561004857fe5b021790555034801561005957600080fd5b506100a76040805190810160405280600b81526020017f43616e64696461746520310000000000000000000000000000000000000000008152506100f9640100000000026401000000009004565b6100f46040805190810160405280600b81526020017f43616e64696461746520320000000000000000000000000000000000000000008152506100f9640100000000026401000000009004565b61021b565b60056000815480929190600101919050555060606040519081016040528060055481526020018281526020016000815250600460006005548152602001908152602001600020600082015181600001556020820151816001019080519060200190610165929190610176565b506040820151816002015590505050565b828054600181600116156101000203166002900490600052602060002090601f016020900481019282601f106101b757805160ff19168380011785556101e5565b828001600101855582156101e5579182015b828111156101e45782518255916020019190600101906101c9565b5b5090506101f291906101f6565b5090565b61021891905b808211156102145760008160009055506001016101fc565b5090565b90565b6106288061022a6000396000f300608060405260043610610078576000357c0100000000000000000000000000000000000000000000000000000000900463ffffffff1680630121b93f1461007d5780631515bc2b146100aa5780632d35a8a2146100d95780633477ee2e14610104578063a3ec138d146101b8578063c040e6b814610213575b600080fd5b34801561008957600080fd5b506100a86004803603810190808035906020019092919050505061024c565b005b3480156100b657600080fd5b506100bf610437565b604051808215151515815260200191505060405180910390f35b3480156100e557600080fd5b506100ee61045c565b6040518082815260200191505060405180910390f35b34801561011057600080fd5b5061012f60048036038101908080359060200190929190505050610462565b6040518084815260200180602001838152602001828103825284818151815260200191508051906020019080838360005b8381101561017b578082015181840152602081019050610160565b50505050905090810190601f1680156101a85780820380516001836020036101000a031916815260200191505b5094505050505060405180910390f35b3480156101c457600080fd5b506101f9600480360381019080803573ffffffffffffffffffffffffffffffffffffffff169060200190929190505050610524565b604051808215151515815260200191505060405180910390f35b34801561021f57600080fd5b50610228610544565b6040518082600381111561023857fe5b60ff16815260200191505060405180910390f35b6000600381111561025957fe5b600260009054906101000a900460ff16600381111561027457fe5b14801561029c57506000809054906101000a900463ffffffff1663ffffffff16600154014210155b156102aa576102a9610557565b5b600060038111156102b757fe5b600260009054906101000a900460ff1660038111156102d257fe5b1480156102e157506001544210155b801561030857506000809054906101000a900463ffffffff1663ffffffff16600154014210155b151561031357600080fd5b600360003373ffffffffffffffffffffffffffffffffffffffff1673ffffffffffffffffffffffffffffffffffffffff16815260200190815260200160002060009054906101000a900460ff1615151561036c57600080fd5b60008111801561037e57506005548111155b151561038957600080fd5b6001600360003373ffffffffffffffffffffffffffffffffffffffff1673ffffffffffffffffffffffffffffffffffffffff16815260200190815260200160002060006101000a81548160ff0219169083151502179055506004600082815260200190815260200160002060020160008154809291906001019190505550807ffff3c900d938d21d0990d786e819f29b8d05c1ef587b462b939609625b684b1660405160405180910390a250565b60008060009054906101000a900463ffffffff1663ffffffff16600154014211905090565b60055481565b6004602052806000526040600020600091509050806000015490806001018054600181600116156101000203166002900480601f0160208091040260200160405190810160405280929190818152602001828054600181600116156101000203166002900480156105145780601f106104e957610100808354040283529160200191610514565b820191906000526020600020905b8154815290600101906020018083116104f757829003601f168201915b5050505050908060020154905083565b60036020528060005260406000206000915054906101000a900460ff1681565b600260009054906101000a900460ff1681565b6003600260009054906101000a900460ff16600381111561057457fe5b14156105ae576000600381111561058757fe5b600260006101000a81548160ff021916908360038111156105a457fe5b02179055506105fa565b6001600260009054906101000a900460ff1660038111156105cb57fe5b0160038111156105d757fe5b600260006101000a81548160ff021916908360038111156105f457fe5b02179055505b5600a165627a7a72305820cee71452832f1451eb3bb37fad686e33663f5db602e4411e7162e5fe54f803480029",
  "source": "pragma solidity ^0.4.2;\n\ncontract Election {\n    //Contract stages\n    enum Stages {\n        AcceptingBlindVotes,\n        RevealResults,\n        GettingDiscordMembers,\n        StartingNewVote\n    }\n\n    uint32 electionTime = 2 seconds;\n    uint electionStart = now;\n\n    //Start with the voting stage\n    Stages public stage = Stages.AcceptingBlindVotes;\n\n    //Create a block whether a function can be called within the current stage\n    modifier atStage(Stages _stage) {\n        require(\n            stage == _stage,\n            \"Function cannot be called at this time.\"\n        );\n        _;\n    }\n\n    /**\n     * Promotes contract into the next stage.\n     * Start with phase 0 again once StartingNewVote is complete\n     */\n    function nextStage() internal {\n        if(uint(stage) == 3) {\n            stage = Stages(0);\n        } else {\n            stage = Stages(uint(stage) + 1);\n        }\n    }\n\n    /**\n     * Creates a timed transition into the next contract stage\n     */\n    modifier timedTransition() {\n        if(stage == Stages.AcceptingBlindVotes\n            && now >= (electionStart + electionTime)) {\n                nextStage();\n        }\n        //All other states transition by transactions\n        _;\n    }\n\n    /**\n     * Reverts if date is not in voting range\n     */\n    modifier onlyWhileAcceptingVotes() {\n        require(stage == Stages.AcceptingBlindVotes\n            && now >= electionStart\n            && now >= (electionStart + electionTime));\n        _;\n    }\n\n    // Model a Candidate\n    struct Candidate {\n        uint id;\n        string name;\n        uint voteCount;\n    }\n    //Store accounts that have voted\n    mapping(address => bool) public voters;\n    // Read/write candidates\n    mapping(uint => Candidate) public candidates;\n\n    // Store Candidates Count\n    uint public candidatesCount;\n\n    function Election () public {\n        addCandidate(\"Candidate 1\");\n        addCandidate(\"Candidate 2\");\n    }\n\n    function addCandidate (string _name) private {\n        candidatesCount ++;\n        candidates[candidatesCount] = Candidate(candidatesCount, _name, 0);\n    }\n\n    function vote (uint _candidateId)\n        public\n        timedTransition\n        onlyWhileAcceptingVotes {\n        // require that they haven't voted before\n        require(!voters[msg.sender]);\n\n        // require a valid candidate\n        require(_candidateId > 0 && _candidateId <= candidatesCount);\n\n        // record that voter has voted\n        voters[msg.sender] = true;\n\n        // update candidate vote Count\n        candidates[_candidateId].voteCount ++;\n\n        // trigger voted event\n        votedEvent(_candidateId);\n    }\n\n    event votedEvent (\n        uint indexed _candidateId\n    );\n\n    /**\n     * Checks whether the period in which votes are allowd has already elapsed.\n     * @return Whether voting period has elapsed\n     */\n    function hasClosed() public view returns (bool) {\n        return now > (electionStart + electionTime);\n    }\n\n    //@TODO: only owner einfügen\n    //@TODO: time flexibel setzen\n    /* function setTimeForElectionInDays() external (uint8 _time) {\n        electionTime = _time;\n    }\n     */\n    /* function electionTimeIsUp() external view returns (bool) {\n        return (now >= (electionStart + electionTime));\n    } */\n}\n\n//Election.deployed().then(function(i) {app=i})\n//app.vote(2, {from: web3.eth.accounts[0]})\n",
  "sourcePath": "/Volumes/Macintosh HD/Development/Crypto/pound-election/contracts/Election.sol",
  "compiler": {
    "name": "solc",
    "version": "0.4.24+commit.e67f0147.Emscripten.clang"
  },
  "schemaVersion": "2.0.0",
  "updatedAt": "2018-06-19T10:57:20.966Z"
}