{
  "contractName": "Election",
  "abi": [
    {
      "constant": true,
      "inputs": [],
      "name": "candidatesCount",
      "outputs": [
        {
          "name": "",
          "type": "uint256"
        }
      ],
      "payable": false,
      "stateMutability": "view",
      "type": "function"
    },
    {
      "constant": true,
      "inputs": [
        {
          "name": "",
          "type": "uint256"
        }
      ],
      "name": "candidates",
      "outputs": [
        {
          "name": "id",
          "type": "uint256"
        },
        {
          "name": "name",
          "type": "string"
        },
        {
          "name": "voteCount",
          "type": "uint256"
        }
      ],
      "payable": false,
      "stateMutability": "view",
      "type": "function"
    },
    {
      "constant": true,
      "inputs": [
        {
          "name": "",
          "type": "address"
        }
      ],
      "name": "voters",
      "outputs": [
        {
          "name": "",
          "type": "bool"
        }
      ],
      "payable": false,
      "stateMutability": "view",
      "type": "function"
    },
    {
      "constant": true,
      "inputs": [],
      "name": "stage",
      "outputs": [
        {
          "name": "",
          "type": "uint8"
        }
      ],
      "payable": false,
      "stateMutability": "view",
      "type": "function"
    },
    {
      "constant": true,
      "inputs": [],
      "name": "electionStart",
      "outputs": [
        {
          "name": "",
          "type": "uint256"
        }
      ],
      "payable": false,
      "stateMutability": "view",
      "type": "function"
    },
    {
      "constant": true,
      "inputs": [],
      "name": "electionEnd",
      "outputs": [
        {
          "name": "",
          "type": "uint256"
        }
      ],
      "payable": false,
      "stateMutability": "view",
      "type": "function"
    },
    {
      "inputs": [],
      "payable": false,
      "stateMutability": "nonpayable",
      "type": "constructor"
    },
    {
      "anonymous": false,
      "inputs": [
        {
          "indexed": true,
          "name": "_candidateId",
          "type": "uint256"
        }
      ],
      "name": "votedEvent",
      "type": "event"
    },
    {
      "constant": false,
      "inputs": [
        {
          "name": "_candidateId",
          "type": "uint256"
        }
      ],
      "name": "vote",
      "outputs": [],
      "payable": false,
      "stateMutability": "nonpayable",
      "type": "function"
    },
    {
      "constant": true,
      "inputs": [],
      "name": "hasClosed",
      "outputs": [
        {
          "name": "",
          "type": "bool"
        }
      ],
      "payable": false,
      "stateMutability": "view",
      "type": "function"
    },
    {
      "constant": false,
      "inputs": [],
      "name": "returnNow",
      "outputs": [
        {
          "name": "",
          "type": "uint256"
        }
      ],
      "payable": false,
      "stateMutability": "nonpayable",
      "type": "function"
    },
    {
      "constant": true,
      "inputs": [],
      "name": "returnEndTime",
      "outputs": [
        {
          "name": "",
          "type": "uint256"
        }
      ],
      "payable": false,
      "stateMutability": "view",
      "type": "function"
    }
  ],
  "bytecode": "0x60806040526000600260006101000a81548160ff0219169083600381111561002357fe5b021790555034801561003457600080fd5b506100826040805190810160405280600b81526020017f43616e64696461746520310000000000000000000000000000000000000000008152506100e7640100000000026401000000009004565b6100cf6040805190810160405280600b81526020017f43616e64696461746520320000000000000000000000000000000000000000008152506100e7640100000000026401000000009004565b42600181905550601460015401600081905550610209565b60056000815480929190600101919050555060606040519081016040528060055481526020018281526020016000815250600460006005548152602001908152602001600020600082015181600001556020820151816001019080519060200190610153929190610164565b506040820151816002015590505050565b828054600181600116156101000203166002900490600052602060002090601f016020900481019282601f106101a557805160ff19168380011785556101d3565b828001600101855582156101d3579182015b828111156101d25782518255916020019190600101906101b7565b5b5090506101e091906101e4565b5090565b61020691905b808211156102025760008160009055506001016101ea565b5090565b90565b6106d2806102186000396000f3006080604052600436106100a4576000357c0100000000000000000000000000000000000000000000000000000000900463ffffffff1680630121b93f146100a957806313e1f055146100d65780631515bc2b146101015780632d35a8a2146101305780633477ee2e1461015b578063a3ec138d1461020f578063c040e6b81461026a578063c1211c86146102a3578063ce7ea161146102ce578063f4c78e16146102f9575b600080fd5b3480156100b557600080fd5b506100d460048036038101908080359060200190929190505050610324565b005b3480156100e257600080fd5b506100eb6104dd565b6040518082815260200191505060405180910390f35b34801561010d57600080fd5b506101166104e6565b604051808215151515815260200191505060405180910390f35b34801561013c57600080fd5b506101456104f2565b6040518082815260200191505060405180910390f35b34801561016757600080fd5b50610186600480360381019080803590602001909291905050506104f8565b6040518084815260200180602001838152602001828103825284818151815260200191508051906020019080838360005b838110156101d25780820151818401526020810190506101b7565b50505050905090810190601f1680156101ff5780820380516001836020036101000a031916815260200191505b5094505050505060405180910390f35b34801561021b57600080fd5b50610250600480360381019080803573ffffffffffffffffffffffffffffffffffffffff1690602001909291905050506105ba565b604051808215151515815260200191505060405180910390f35b34801561027657600080fd5b5061027f6105da565b6040518082600381111561028f57fe5b60ff16815260200191505060405180910390f35b3480156102af57600080fd5b506102b86105ed565b6040518082815260200191505060405180910390f35b3480156102da57600080fd5b506102e36105f3565b6040518082815260200191505060405180910390f35b34801561030557600080fd5b5061030e6105f9565b6040518082815260200191505060405180910390f35b6000600381111561033157fe5b600260009054906101000a900460ff16600381111561034c57fe5b14801561035b57506000544210155b1561036957610368610601565b5b6000600381111561037657fe5b600260009054906101000a900460ff16600381111561039157fe5b1480156103a057506001544210155b80156103ae57506000544211155b15156103b957600080fd5b600360003373ffffffffffffffffffffffffffffffffffffffff1673ffffffffffffffffffffffffffffffffffffffff16815260200190815260200160002060009054906101000a900460ff1615151561041257600080fd5b60008111801561042457506005548111155b151561042f57600080fd5b6001600360003373ffffffffffffffffffffffffffffffffffffffff1673ffffffffffffffffffffffffffffffffffffffff16815260200190815260200160002060006101000a81548160ff0219169083151502179055506004600082815260200190815260200160002060020160008154809291906001019190505550807ffff3c900d938d21d0990d786e819f29b8d05c1ef587b462b939609625b684b1660405160405180910390a250565b60008054905090565b60008054421015905090565b60055481565b6004602052806000526040600020600091509050806000015490806001018054600181600116156101000203166002900480601f0160208091040260200160405190810160405280929190818152602001828054600181600116156101000203166002900480156105aa5780601f1061057f576101008083540402835291602001916105aa565b820191906000526020600020905b81548152906001019060200180831161058d57829003601f168201915b5050505050908060020154905083565b60036020528060005260406000206000915054906101000a900460ff1681565b600260009054906101000a900460ff1681565b60015481565b60005481565b600042905090565b6003600260009054906101000a900460ff16600381111561061e57fe5b1415610658576000600381111561063157fe5b600260006101000a81548160ff0219169083600381111561064e57fe5b02179055506106a4565b6001600260009054906101000a900460ff16600381111561067557fe5b01600381111561068157fe5b600260006101000a81548160ff0219169083600381111561069e57fe5b02179055505b5600a165627a7a72305820dad01f5bc3096db29ff29fe0f378e650556e66f5348e65e8428d181a41ff21f50029",
  "source": "pragma solidity ^0.4.2;\n\ncontract Election {\n    //Contract stages\n    enum Stages {\n        AcceptingBlindVotes,\n        RevealResults,\n        GettingDiscordMembers,\n        StartingNewVote\n    }\n\n    uint public electionEnd;\n    uint public electionStart;\n    //Start with the voting stage\n    Stages public stage = Stages.AcceptingBlindVotes;\n\n    //Create a block whether a function can be called within the current stage\n    modifier atStage(Stages _stage) {\n        require(\n            stage == _stage,\n            \"Function cannot be called at this time.\"\n        );\n        _;\n    }\n\n    /**\n     * Promotes contract into the next stage.\n     * Start with phase 0 again once StartingNewVote is complete\n     */\n    function nextStage() internal {\n        if(uint(stage) == 3) {\n            stage = Stages(0);\n        } else {\n            stage = Stages(uint(stage) + 1);\n        }\n    }\n\n    /**\n     * Creates a timed transition into the next contract stage\n     */\n    modifier timedTransition() {\n        if(stage == Stages.AcceptingBlindVotes\n            && now >= (electionEnd)) {\n                nextStage();\n        }\n        //All other states transition by transactions\n        _;\n    }\n\n    /**\n     * Reverts if date is not in voting range\n     */\n    modifier onlyWhileAcceptingVotes() {\n        require(stage == Stages.AcceptingBlindVotes\n            && now >= electionStart\n            && now <= electionEnd);\n        _;\n    }\n\n    // Model a Candidate\n    struct Candidate {\n        uint id;\n        string name;\n        uint voteCount;\n    }\n    //Store accounts that have voted\n    mapping(address => bool) public voters;\n    // Read/write candidates\n    mapping(uint => Candidate) public candidates;\n\n    // Store Candidates Count\n    uint public candidatesCount;\n\n    function Election () public {\n        addCandidate(\"Candidate 1\");\n        addCandidate(\"Candidate 2\");\n        electionStart = now;\n        electionEnd = electionStart + 20 seconds;\n    }\n\n    function addCandidate (string _name) private {\n        candidatesCount ++;\n        candidates[candidatesCount] = Candidate(candidatesCount, _name, 0);\n    }\n\n    function vote (uint _candidateId)\n        public\n        timedTransition\n        onlyWhileAcceptingVotes {\n        // require that they haven't voted before\n        require(!voters[msg.sender]);\n\n        // require a valid candidate\n        require(_candidateId > 0 && _candidateId <= candidatesCount);\n\n        // record that voter has voted\n        voters[msg.sender] = true;\n\n        // update candidate vote Count\n        candidates[_candidateId].voteCount ++;\n\n        // trigger voted event\n        votedEvent(_candidateId);\n    }\n\n    event votedEvent (\n        uint indexed _candidateId\n    );\n\n    /**\n     * Checks whether the period in which votes are allowd has already elapsed.\n     * @return Whether voting period has elapsed\n     */\n    function hasClosed() public view returns (bool) {\n        return now >= (electionEnd);\n    }\n\n    function returnNow() public returns (uint) {\n        return now;\n    }\n\n    function returnEndTime() public view returns (uint) {\n        return (electionEnd);\n    }\n\n    //@TODO: only owner einfügen\n    //@TODO: time flexibel setzen\n    /* function setTimeForElectionInDays() external (uint8 _time) {\n        electionTime = _time;\n    }\n     */\n    /* function electionTimeIsUp() external view returns (bool) {\n        return (now >= (electionStart + electionTime));\n    } */\n}\n\n//Election.deployed().then(function(i) {app=i})\n//app.vote(2, {from: web3.eth.accounts[0]})\n",
  "sourcePath": "/Volumes/Macintosh HD/Development/Crypto/pound-election/contracts/Election.sol",
  "compiler": {
    "name": "solc",
    "version": "0.4.24+commit.e67f0147.Emscripten.clang"
  },
  "schemaVersion": "2.0.0",
  "updatedAt": "2018-06-19T17:52:00.177Z"
}