{
  "contractName": "Election",
  "abi": [
    {
      "constant": true,
      "inputs": [],
      "name": "candidatesCount",
      "outputs": [
        {
          "name": "",
          "type": "uint256"
        }
      ],
      "payable": false,
      "stateMutability": "view",
      "type": "function"
    },
    {
      "constant": true,
      "inputs": [
        {
          "name": "",
          "type": "uint256"
        }
      ],
      "name": "candidates",
      "outputs": [
        {
          "name": "id",
          "type": "uint256"
        },
        {
          "name": "voteCount",
          "type": "uint8"
        },
        {
          "name": "name",
          "type": "string"
        }
      ],
      "payable": false,
      "stateMutability": "view",
      "type": "function"
    },
    {
      "constant": true,
      "inputs": [
        {
          "name": "",
          "type": "address"
        }
      ],
      "name": "voters",
      "outputs": [
        {
          "name": "",
          "type": "bool"
        }
      ],
      "payable": false,
      "stateMutability": "view",
      "type": "function"
    },
    {
      "constant": true,
      "inputs": [
        {
          "name": "",
          "type": "uint256"
        }
      ],
      "name": "categoryStructs",
      "outputs": [
        {
          "name": "id",
          "type": "uint256"
        },
        {
          "name": "name",
          "type": "string"
        }
      ],
      "payable": false,
      "stateMutability": "view",
      "type": "function"
    },
    {
      "constant": true,
      "inputs": [],
      "name": "stage",
      "outputs": [
        {
          "name": "",
          "type": "uint8"
        }
      ],
      "payable": false,
      "stateMutability": "view",
      "type": "function"
    },
    {
      "constant": true,
      "inputs": [],
      "name": "electionStart",
      "outputs": [
        {
          "name": "",
          "type": "uint256"
        }
      ],
      "payable": false,
      "stateMutability": "view",
      "type": "function"
    },
    {
      "constant": true,
      "inputs": [],
      "name": "electionEnd",
      "outputs": [
        {
          "name": "",
          "type": "uint256"
        }
      ],
      "payable": false,
      "stateMutability": "view",
      "type": "function"
    },
    {
      "inputs": [],
      "payable": false,
      "stateMutability": "nonpayable",
      "type": "constructor"
    },
    {
      "anonymous": false,
      "inputs": [
        {
          "indexed": true,
          "name": "_candidateId",
          "type": "uint256"
        }
      ],
      "name": "votedEvent",
      "type": "event"
    },
    {
      "constant": true,
      "inputs": [
        {
          "name": "_categoryId",
          "type": "uint8"
        }
      ],
      "name": "getCategory",
      "outputs": [
        {
          "name": "name",
          "type": "string"
        },
        {
          "name": "candidateCount",
          "type": "uint256"
        }
      ],
      "payable": false,
      "stateMutability": "view",
      "type": "function"
    },
    {
      "constant": true,
      "inputs": [
        {
          "name": "_categoryId",
          "type": "uint8"
        },
        {
          "name": "_candidateId",
          "type": "uint256"
        }
      ],
      "name": "getCandidateResultsAndInfoFromCategory",
      "outputs": [
        {
          "name": "id",
          "type": "uint256"
        },
        {
          "name": "name",
          "type": "string"
        },
        {
          "name": "voteCount",
          "type": "uint8"
        }
      ],
      "payable": false,
      "stateMutability": "view",
      "type": "function"
    },
    {
      "constant": false,
      "inputs": [
        {
          "name": "_categoryId",
          "type": "uint8"
        },
        {
          "name": "_candidateId",
          "type": "uint256"
        }
      ],
      "name": "addVoteForCandidateInCategory",
      "outputs": [
        {
          "name": "success",
          "type": "bool"
        }
      ],
      "payable": false,
      "stateMutability": "nonpayable",
      "type": "function"
    },
    {
      "constant": false,
      "inputs": [
        {
          "name": "_candidateId",
          "type": "uint256"
        }
      ],
      "name": "vote",
      "outputs": [],
      "payable": false,
      "stateMutability": "nonpayable",
      "type": "function"
    },
    {
      "constant": true,
      "inputs": [],
      "name": "hasClosed",
      "outputs": [
        {
          "name": "",
          "type": "bool"
        }
      ],
      "payable": false,
      "stateMutability": "view",
      "type": "function"
    },
    {
      "constant": false,
      "inputs": [
        {
          "name": "_categoryId",
          "type": "uint8"
        },
        {
          "name": "_name",
          "type": "string"
        }
      ],
      "name": "newCategory",
      "outputs": [
        {
          "name": "success",
          "type": "bool"
        }
      ],
      "payable": false,
      "stateMutability": "nonpayable",
      "type": "function"
    },
    {
      "constant": false,
      "inputs": [
        {
          "name": "_candidateId",
          "type": "uint8"
        },
        {
          "name": "_name",
          "type": "string"
        },
        {
          "name": "_categoryId",
          "type": "uint8"
        }
      ],
      "name": "addCandidate",
      "outputs": [],
      "payable": false,
      "stateMutability": "nonpayable",
      "type": "function"
    }
  ],
  "bytecode": "0x60806040526000600560006101000a81548160ff021916908360038111156200002457fe5b02179055503480156200003657600080fd5b506200008a60036040805190810160405280600b81526020017f43616e6469646174652033000000000000000000000000000000000000000000815250600062000af8640100000000026401000000009004565b620000dd60036040805190810160405280600b81526020017f43616e6469646174652033000000000000000000000000000000000000000000815250600162000af8640100000000026401000000009004565b6200013060036040805190810160405280600b81526020017f43616e6469646174652033000000000000000000000000000000000000000000815250600262000af8640100000000026401000000009004565b6200018360036040805190810160405280600b81526020017f43616e6469646174652033000000000000000000000000000000000000000000815250600362000af8640100000000026401000000009004565b620001d660036040805190810160405280600b81526020017f43616e6469646174652033000000000000000000000000000000000000000000815250600462000af8640100000000026401000000009004565b6200022960036040805190810160405280600b81526020017f43616e6469646174652033000000000000000000000000000000000000000000815250600562000af8640100000000026401000000009004565b6200027c60036040805190810160405280600b81526020017f43616e6469646174652033000000000000000000000000000000000000000000815250600662000af8640100000000026401000000009004565b620002cf60036040805190810160405280600b81526020017f43616e6469646174652033000000000000000000000000000000000000000000815250600762000af8640100000000026401000000009004565b6200032260016040805190810160405280600b81526020017f43616e6469646174652031000000000000000000000000000000000000000000815250600062000af8640100000000026401000000009004565b6200037560016040805190810160405280600b81526020017f43616e6469646174652031000000000000000000000000000000000000000000815250600162000af8640100000000026401000000009004565b620003c860016040805190810160405280600b81526020017f43616e6469646174652031000000000000000000000000000000000000000000815250600262000af8640100000000026401000000009004565b6200041b60016040805190810160405280600b81526020017f43616e6469646174652031000000000000000000000000000000000000000000815250600362000af8640100000000026401000000009004565b6200046e60016040805190810160405280600b81526020017f43616e6469646174652031000000000000000000000000000000000000000000815250600462000af8640100000000026401000000009004565b620004c160016040805190810160405280600b81526020017f43616e6469646174652031000000000000000000000000000000000000000000815250600562000af8640100000000026401000000009004565b6200051460016040805190810160405280600b81526020017f43616e6469646174652031000000000000000000000000000000000000000000815250600662000af8640100000000026401000000009004565b6200056760016040805190810160405280600b81526020017f43616e6469646174652031000000000000000000000000000000000000000000815250600762000af8640100000000026401000000009004565b620005ba60026040805190810160405280600b81526020017f43616e6469646174652032000000000000000000000000000000000000000000815250600062000af8640100000000026401000000009004565b6200060d60026040805190810160405280600b81526020017f43616e6469646174652032000000000000000000000000000000000000000000815250600162000af8640100000000026401000000009004565b6200066060026040805190810160405280600b81526020017f43616e6469646174652032000000000000000000000000000000000000000000815250600262000af8640100000000026401000000009004565b620006b360026040805190810160405280600b81526020017f43616e6469646174652032000000000000000000000000000000000000000000815250600362000af8640100000000026401000000009004565b6200070660026040805190810160405280600b81526020017f43616e6469646174652032000000000000000000000000000000000000000000815250600462000af8640100000000026401000000009004565b6200075960026040805190810160405280600b81526020017f43616e6469646174652032000000000000000000000000000000000000000000815250600562000af8640100000000026401000000009004565b620007ac60026040805190810160405280600b81526020017f43616e6469646174652032000000000000000000000000000000000000000000815250600662000af8640100000000026401000000009004565b620007ff60026040805190810160405280600b81526020017f43616e6469646174652032000000000000000000000000000000000000000000815250600762000af8640100000000026401000000009004565b6200085060006040805190810160405280601481526020017f4f766572616c6c2042657374205465616368657200000000000000000000000081525062000b99640100000000026401000000009004565b50620008a260016040805190810160405280601281526020017f4265737420416c74636f696e205069636b73000000000000000000000000000081525062000b99640100000000026401000000009004565b50620008f460026040805190810160405280601b81526020017f42657374204775617264206f6e20426974636f696e205761746368000000000081525062000b99640100000000026401000000009004565b506200094660036040805190810160405280601681526020017f426573742049434f20436f6e747269627574696f6e730000000000000000000081525062000b99640100000000026401000000009004565b506200099860046040805190810160405280601081526020017f4265737420464120416e616c797369730000000000000000000000000000000081525062000b99640100000000026401000000009004565b50620009ea60056040805190810160405280602081526020017f426573742053686f742043616c6c6572206f6e204d617267696e20506c61797381525062000b99640100000000026401000000009004565b5062000a636006606060405190810160405280602981526020017f4265737420436f6e747269627574696f6e7320746f20546f6f6c7320616e642081526020017f456475636174696f6e000000000000000000000000000000000000000000000081525062000b99640100000000026401000000009004565b5062000adc6007606060405190810160405280602781526020017f47656e6572616c20506f73697469766520496e666c75656e6365206f6e20746881526020017f6520506f756e640000000000000000000000000000000000000000000000000081525062000b99640100000000026401000000009004565b5042600481905550620151806004540160038190555062000d2a565b6060604051908101604052808460ff168152602001600060ff168152602001838152506000808360ff16815260200190815260200160002060030160008560ff1681526020019081526020016000206000820151816000015560208201518160010160006101000a81548160ff021916908360ff160217905550604082015181600201908051906020019062000b9092919062000bf4565b50905050505050565b60008260ff166000808560ff16815260200190815260200160002060000181905550816000808560ff168152602001908152602001600020600101908051906020019062000be992919062000c7b565b506001905092915050565b828054600181600116156101000203166002900490600052602060002090601f016020900481019282601f1062000c3757805160ff191683800117855562000c68565b8280016001018555821562000c68579182015b8281111562000c6757825182559160200191906001019062000c4a565b5b50905062000c77919062000d02565b5090565b828054600181600116156101000203166002900490600052602060002090601f016020900481019282601f1062000cbe57805160ff191683800117855562000cef565b8280016001018555821562000cef579182015b8281111562000cee57825182559160200191906001019062000cd1565b5b50905062000cfe919062000d02565b5090565b62000d2791905b8082111562000d2357600081600090555060010162000d09565b5090565b90565b610ff38062000d3a6000396000f3006080604052600436106100d0576000357c0100000000000000000000000000000000000000000000000000000000900463ffffffff1680630121b93f146100d55780630a56b200146101025780631515bc2b146101c95780632d35a8a2146101f85780633477ee2e1461022357806342f2ce02146102dd578063591474a31461032f57806375ded0ae146103b2578063887b98b914610440578063a3ec138d146104f0578063b7db408c1461054b578063c040e6b8146105f8578063c1211c8614610631578063ce7ea1611461065c575b600080fd5b3480156100e157600080fd5b5061010060048036038101908080359060200190929190505050610687565b005b34801561010e57600080fd5b5061013a600480360381019080803560ff169060200190929190803590602001909291905050506107ed565b60405180848152602001806020018360ff1660ff168152602001828103825284818151815260200191508051906020019080838360005b8381101561018c578082015181840152602081019050610171565b50505050905090810190601f1680156101b95780820380516001836020036101000a031916815260200191505b5094505050505060405180910390f35b3480156101d557600080fd5b506101de61092f565b604051808215151515815260200191505060405180910390f35b34801561020457600080fd5b5061020d61093c565b6040518082815260200191505060405180910390f35b34801561022f57600080fd5b5061024e60048036038101908080359060200190929190505050610942565b604051808481526020018360ff1660ff16815260200180602001828103825283818151815260200191508051906020019080838360005b838110156102a0578082015181840152602081019050610285565b50505050905090810190601f1680156102cd5780820380516001836020036101000a031916815260200191505b5094505050505060405180910390f35b3480156102e957600080fd5b50610315600480360381019080803560ff16906020019092919080359060200190929190505050610a11565b604051808215151515815260200191505060405180910390f35b34801561033b57600080fd5b506103b0600480360381019080803560ff169060200190929190803590602001908201803590602001908080601f0160208091040260200160405190810160405280939291908181526020018383808284378201915050505050509192919290803560ff169060200190929190505050610b2d565b005b3480156103be57600080fd5b50610426600480360381019080803560ff169060200190929190803590602001908201803590602001908080601f0160208091040260200160405190810160405280939291908181526020018383808284378201915050505050509192919290505050610bcc565b604051808215151515815260200191505060405180910390f35b34801561044c57600080fd5b5061046e600480360381019080803560ff169060200190929190505050610c25565b6040518080602001838152602001828103825284818151815260200191508051906020019080838360005b838110156104b4578082015181840152602081019050610499565b50505050905090810190601f1680156104e15780820380516001836020036101000a031916815260200191505b50935050505060405180910390f35b3480156104fc57600080fd5b50610531600480360381019080803573ffffffffffffffffffffffffffffffffffffffff169060200190929190505050610d02565b604051808215151515815260200191505060405180910390f35b34801561055757600080fd5b5061057660048036038101908080359060200190929190505050610d22565b6040518083815260200180602001828103825283818151815260200191508051906020019080838360005b838110156105bc5780820151818401526020810190506105a1565b50505050905090810190601f1680156105e95780820380516001836020036101000a031916815260200191505b50935050505060405180910390f35b34801561060457600080fd5b5061060d610dde565b6040518082600381111561061d57fe5b60ff16815260200191505060405180910390f35b34801561063d57600080fd5b50610646610df1565b6040518082815260200191505060405180910390f35b34801561066857600080fd5b50610671610df7565b6040518082815260200191505060405180910390f35b6000600381111561069457fe5b600560009054906101000a900460ff1660038111156106af57fe5b1480156106be57506003544210155b156106cc576106cb610dfd565b5b600060038111156106d957fe5b600560009054906101000a900460ff1660038111156106f457fe5b14801561070357506004544210155b801561071157506003544211155b151561071c57600080fd5b600260003373ffffffffffffffffffffffffffffffffffffffff1673ffffffffffffffffffffffffffffffffffffffff16815260200190815260200160002060009054906101000a900460ff1615151561077557600080fd5b60008111801561078757506006548111155b151561079257600080fd5b6001600260003373ffffffffffffffffffffffffffffffffffffffff1673ffffffffffffffffffffffffffffffffffffffff16815260200190815260200160002060006101000a81548160ff02191690831515021790555050565b6000606060008060008660ff1681526020019081526020016000206003016000858152602001908152602001600020600001546000808760ff16815260200190815260200160002060030160008681526020019081526020016000206002016000808860ff168152602001908152602001600020600301600087815260200190815260200160002060010160009054906101000a900460ff16818054600181600116156101000203166002900480601f01602080910402602001604051908101604052809291908181526020018280546001816001161561010002031660029004801561091b5780601f106108f05761010080835404028352916020019161091b565b820191906000526020600020905b8154815290600101906020018083116108fe57829003601f168201915b505050505091509250925092509250925092565b6000600354421015905090565b60065481565b60016020528060005260406000206000915090508060000154908060010160009054906101000a900460ff1690806002018054600181600116156101000203166002900480601f016020809104026020016040519081016040528092919081815260200182805460018160011615610100020316600290048015610a075780601f106109dc57610100808354040283529160200191610a07565b820191906000526020600020905b8154815290600101906020018083116109ea57829003601f168201915b5050505050905083565b6000806000808560ff168152602001908152602001600020600301600084815260200190815260200160002060010160009054906101000a900460ff1660ff161415610a9a576000808460ff1681526020019081526020016000206002018290806001815401808255809150509060018203906000526020600020016000909192909190915055505b6000808460ff1681526020019081526020016000206003016000838152602001908152602001600020600101600081819054906101000a900460ff168092919060010191906101000a81548160ff021916908360ff16021790555050817ffff3c900d938d21d0990d786e819f29b8d05c1ef587b462b939609625b684b1660405160405180910390a26001905092915050565b6060604051908101604052808460ff168152602001600060ff168152602001838152506000808360ff16815260200190815260200160002060030160008560ff1681526020019081526020016000206000820151816000015560208201518160010160006101000a81548160ff021916908360ff1602179055506040820151816002019080519060200190610bc3929190610ea2565b50905050505050565b60008260ff166000808560ff16815260200190815260200160002060000181905550816000808560ff1681526020019081526020016000206001019080519060200190610c1a929190610f22565b506001905092915050565b606060008060008460ff1681526020019081526020016000206001016000808560ff16815260200190815260200160002060020180549050818054600181600116156101000203166002900480601f016020809104026020016040519081016040528092919081815260200182805460018160011615610100020316600290048015610cf25780601f10610cc757610100808354040283529160200191610cf2565b820191906000526020600020905b815481529060010190602001808311610cd557829003601f168201915b5050505050915091509150915091565b60026020528060005260406000206000915054906101000a900460ff1681565b6000602052806000526040600020600091509050806000015490806001018054600181600116156101000203166002900480601f016020809104026020016040519081016040528092919081815260200182805460018160011615610100020316600290048015610dd45780601f10610da957610100808354040283529160200191610dd4565b820191906000526020600020905b815481529060010190602001808311610db757829003601f168201915b5050505050905082565b600560009054906101000a900460ff1681565b60045481565b60035481565b6003600560009054906101000a900460ff166003811115610e1a57fe5b1415610e545760006003811115610e2d57fe5b600560006101000a81548160ff02191690836003811115610e4a57fe5b0217905550610ea0565b6001600560009054906101000a900460ff166003811115610e7157fe5b016003811115610e7d57fe5b600560006101000a81548160ff02191690836003811115610e9a57fe5b02179055505b565b828054600181600116156101000203166002900490600052602060002090601f016020900481019282601f10610ee357805160ff1916838001178555610f11565b82800160010185558215610f11579182015b82811115610f10578251825591602001919060010190610ef5565b5b509050610f1e9190610fa2565b5090565b828054600181600116156101000203166002900490600052602060002090601f016020900481019282601f10610f6357805160ff1916838001178555610f91565b82800160010185558215610f91579182015b82811115610f90578251825591602001919060010190610f75565b5b509050610f9e9190610fa2565b5090565b610fc491905b80821115610fc0576000816000905550600101610fa8565b5090565b905600a165627a7a72305820047570f94053cd479cd13d1e44d5a2c3623e42bf944418d4ac13bb70102f489e0029",
  "source": "pragma solidity ^0.4.2;\n\ncontract Election {\n\n    //Candidates\n    struct Candidate {\n        uint id;\n        uint8 voteCount;\n        string name;\n    }\n    //Question Categories\n    struct Categories {\n        uint id;\n        string name;\n        uint[] candidateList;\n        mapping(uint => Candidate) candidateStructs;\n    }\n    //Store Categories by Id\n    mapping(uint => Categories) public categoryStructs;\n    //Read/write candidates\n    mapping(uint => Candidate) public candidates;\n    //Store accounts that have voted\n    mapping(address => bool) public voters;\n    //Election start and Enddates initialized in constructor\n    uint public electionEnd;\n    uint public electionStart;\n    //Start with the voting stage\n    Stages public stage = Stages.AcceptingBlindVotes;\n\n\n\n    function getCategory(uint8 _categoryId)\n        public\n        view\n        returns(string name, uint candidateCount)\n    {\n        return(categoryStructs[_categoryId].name, categoryStructs[_categoryId].candidateList.length);\n    }\n\n    function getCandidateResultsAndInfoFromCategory(uint8 _categoryId, uint _candidateId)\n        public\n        view\n        returns(uint id, string name, uint8 voteCount)\n    {\n        return(\n            categoryStructs[_categoryId].candidateStructs[_candidateId].id,\n            categoryStructs[_categoryId].candidateStructs[_candidateId].name,\n            categoryStructs[_categoryId].candidateStructs[_candidateId].voteCount\n            );\n    }\n\n    function addVoteForCandidateInCategory(uint8 _categoryId, uint _candidateId)\n        public\n        returns(bool success)\n    {\n        if(categoryStructs[_categoryId].candidateStructs[_candidateId].voteCount == 0) {\n            categoryStructs[_categoryId].candidateList.push(_candidateId);\n        }\n        categoryStructs[_categoryId].candidateStructs[_candidateId].voteCount++;\n        // trigger voted event\n        votedEvent(_candidateId); //@TODO: to test this\n        return true;\n    }\n\n    //Contract stages\n    enum Stages {\n        AcceptingBlindVotes,\n        RevealResults,\n        GettingDiscordMembers,\n        StartingNewVote\n    }\n\n    //Store Candidates Count\n    uint public candidatesCount;\n\n    function Election () public {\n        /* for(uint8 i=0; i) */\n        addCandidate(3, \"Candidate 3\", 0);\n        addCandidate(3, \"Candidate 3\", 1);\n        addCandidate(3, \"Candidate 3\", 2);\n        addCandidate(3, \"Candidate 3\", 3);\n        addCandidate(3, \"Candidate 3\", 4);\n        addCandidate(3, \"Candidate 3\", 5);\n        addCandidate(3, \"Candidate 3\", 6);\n        addCandidate(3, \"Candidate 3\", 7);\n\n        addCandidate(1, \"Candidate 1\", 0);\n        addCandidate(1, \"Candidate 1\", 1);\n        addCandidate(1, \"Candidate 1\", 2);\n        addCandidate(1, \"Candidate 1\", 3);\n        addCandidate(1, \"Candidate 1\", 4);\n        addCandidate(1, \"Candidate 1\", 5);\n        addCandidate(1, \"Candidate 1\", 6);\n        addCandidate(1, \"Candidate 1\", 7);\n\n        addCandidate(2, \"Candidate 2\", 0);\n        addCandidate(2, \"Candidate 2\", 1);\n        addCandidate(2, \"Candidate 2\", 2);\n        addCandidate(2, \"Candidate 2\", 3);\n        addCandidate(2, \"Candidate 2\", 4);\n        addCandidate(2, \"Candidate 2\", 5);\n        addCandidate(2, \"Candidate 2\", 6);\n        addCandidate(2, \"Candidate 2\", 7);\n\n        //Initialize voting categories\n        newCategory(0, \"Overall Best Teacher\");\n        newCategory(1, \"Best Altcoin Picks\");\n        newCategory(2, \"Best Guard on Bitcoin Watch\");\n        newCategory(3, \"Best ICO Contributions\");\n        newCategory(4, \"Best FA Analysis\");\n        newCategory(5, \"Best Shot Caller on Margin Plays\");\n        newCategory(6, \"Best Contributions to Tools and Education\");\n        newCategory(7, \"General Positive Influence on the Pound\");\n\n        //Set the voting period\n        electionStart = now;\n        electionEnd = electionStart + 1 days;\n    }\n\n\n        //Create a block whether a function can be called within the current stage\n        modifier atStage(Stages _stage) {\n            require(\n                stage == _stage,\n                \"Function cannot be called at this time.\"\n            );\n            _;\n        }\n\n        /**\n         * Promotes contract into the next stage.\n         * Start with phase 0 again once StartingNewVote is complete\n         */\n        function nextStage() internal {\n            if(uint(stage) == 3) {\n                stage = Stages(0);\n            } else {\n                stage = Stages(uint(stage) + 1);\n            }\n        }\n\n        /**\n         * Creates a timed transition into the next contract stage\n         */\n        modifier timedTransition() {\n            if(stage == Stages.AcceptingBlindVotes\n                && now >= (electionEnd)) {\n                    nextStage();\n            }\n            //All other states transition by transactions\n            _;\n        }\n\n        /**\n         * Reverts if date is not in voting range\n         */\n        modifier onlyWhileAcceptingVotes() {\n            require(stage == Stages.AcceptingBlindVotes\n                && now >= electionStart\n                && now <= electionEnd);\n            _;\n        }\n\n\n    function vote (uint _candidateId)\n        public\n        timedTransition\n        onlyWhileAcceptingVotes {\n        // require voter hasn't voted before\n        require(!voters[msg.sender]);\n\n        // require valid candidates\n        require(_candidateId > 0 && _candidateId <= candidatesCount);\n\n        // record that voter has voted\n        voters[msg.sender] = true;\n\n        // update candidate vote Count\n        /* candidates[candidatesCount].voteCount ++; */\n\n        // trigger voted event\n        /* votedEvent(_candidateIds[i]); */\n    }\n\n\n    event votedEvent (\n        uint indexed _candidateId\n    );\n\n    /**\n     * Checks whether the period in which votes are allowd has already elapsed.\n     * @return Whether voting period has elapsed\n     */\n    function hasClosed() public view returns (bool) {\n        return now >= (electionEnd);\n    }\n\n    function newCategory(uint8 _categoryId, string _name)\n        // onlyOwner\n        returns(bool success)\n    {\n        // not checking for duplicates\n        categoryStructs[_categoryId].id = _categoryId;\n        categoryStructs[_categoryId].name = _name;\n        //categoriesList.push(_categoryId);\n        return true;\n    }\n\n    function addCandidate (uint8 _candidateId, string _name, uint8 _categoryId)\n        public\n        // onlyOwner\n    {\n        categoryStructs[_categoryId].candidateStructs[_candidateId] = Candidate(_candidateId, 0, _name);\n    }\n\n    //@TODO: only owner einfügen\n    //@TODO: time flexibel setzen\n    /* function setTimeForElectionInDays() external (uint8 _time) {\n        electionTime = _time;\n    }\n     */\n    /* function electionTimeIsUp() external view returns (bool) {\n        return (now >= (electionStart + electionTime));\n    } */\n}\n\n//Election.deployed().then(function(i) {app=i})\n//app.vote(2, {from: web3.eth.accounts[0]})\n",
  "sourcePath": "/Volumes/Macintosh HD/Development/Crypto/pound-election/contracts/Election.sol",
  "compiler": {
    "name": "solc",
    "version": "0.4.24+commit.e67f0147.Emscripten.clang"
  },
  "schemaVersion": "2.0.0",
  "updatedAt": "2018-07-05T06:40:59.928Z"
}