{
  "contractName": "Election",
  "abi": [
    {
      "constant": true,
      "inputs": [],
      "name": "electionDuration",
      "outputs": [
        {
          "name": "",
          "type": "uint256"
        }
      ],
      "payable": false,
      "stateMutability": "view",
      "type": "function"
    },
    {
      "constant": true,
      "inputs": [],
      "name": "candidatesCount",
      "outputs": [
        {
          "name": "",
          "type": "uint256"
        }
      ],
      "payable": false,
      "stateMutability": "view",
      "type": "function"
    },
    {
      "constant": true,
      "inputs": [
        {
          "name": "",
          "type": "uint256"
        }
      ],
      "name": "candidates",
      "outputs": [
        {
          "name": "id",
          "type": "uint256"
        },
        {
          "name": "voteCount",
          "type": "uint8"
        },
        {
          "name": "name",
          "type": "string"
        }
      ],
      "payable": false,
      "stateMutability": "view",
      "type": "function"
    },
    {
      "constant": true,
      "inputs": [],
      "name": "revealResultDuration",
      "outputs": [
        {
          "name": "",
          "type": "uint256"
        }
      ],
      "payable": false,
      "stateMutability": "view",
      "type": "function"
    },
    {
      "constant": true,
      "inputs": [],
      "name": "owner",
      "outputs": [
        {
          "name": "",
          "type": "address"
        }
      ],
      "payable": false,
      "stateMutability": "view",
      "type": "function"
    },
    {
      "constant": true,
      "inputs": [
        {
          "name": "",
          "type": "address"
        }
      ],
      "name": "voters",
      "outputs": [
        {
          "name": "",
          "type": "bool"
        }
      ],
      "payable": false,
      "stateMutability": "view",
      "type": "function"
    },
    {
      "constant": true,
      "inputs": [
        {
          "name": "",
          "type": "uint256"
        }
      ],
      "name": "categoryStructs",
      "outputs": [
        {
          "name": "id",
          "type": "uint256"
        },
        {
          "name": "name",
          "type": "string"
        }
      ],
      "payable": false,
      "stateMutability": "view",
      "type": "function"
    },
    {
      "constant": true,
      "inputs": [],
      "name": "stage",
      "outputs": [
        {
          "name": "",
          "type": "uint8"
        }
      ],
      "payable": false,
      "stateMutability": "view",
      "type": "function"
    },
    {
      "constant": true,
      "inputs": [],
      "name": "electionStart",
      "outputs": [
        {
          "name": "",
          "type": "uint256"
        }
      ],
      "payable": false,
      "stateMutability": "view",
      "type": "function"
    },
    {
      "constant": true,
      "inputs": [],
      "name": "electionEnd",
      "outputs": [
        {
          "name": "",
          "type": "uint256"
        }
      ],
      "payable": false,
      "stateMutability": "view",
      "type": "function"
    },
    {
      "inputs": [],
      "payable": false,
      "stateMutability": "nonpayable",
      "type": "constructor"
    },
    {
      "anonymous": false,
      "inputs": [
        {
          "indexed": true,
          "name": "_candidateId",
          "type": "uint256"
        }
      ],
      "name": "votedEvent",
      "type": "event"
    },
    {
      "constant": false,
      "inputs": [
        {
          "name": "_newOwner",
          "type": "address"
        }
      ],
      "name": "changeOwner",
      "outputs": [],
      "payable": false,
      "stateMutability": "nonpayable",
      "type": "function"
    },
    {
      "constant": true,
      "inputs": [
        {
          "name": "_categoryId",
          "type": "uint8"
        }
      ],
      "name": "getCategory",
      "outputs": [
        {
          "name": "name",
          "type": "string"
        },
        {
          "name": "candidateCount",
          "type": "uint256"
        }
      ],
      "payable": false,
      "stateMutability": "view",
      "type": "function"
    },
    {
      "constant": true,
      "inputs": [
        {
          "name": "_categoryId",
          "type": "uint8"
        },
        {
          "name": "_candidateId",
          "type": "uint256"
        }
      ],
      "name": "getCandidateResultsAndInfoFromCategory",
      "outputs": [
        {
          "name": "id",
          "type": "uint256"
        },
        {
          "name": "name",
          "type": "string"
        },
        {
          "name": "voteCount",
          "type": "uint8"
        }
      ],
      "payable": false,
      "stateMutability": "view",
      "type": "function"
    },
    {
      "constant": false,
      "inputs": [
        {
          "name": "_categoryId",
          "type": "uint8"
        },
        {
          "name": "_candidateId",
          "type": "uint256"
        }
      ],
      "name": "addVoteForCandidateInCategory",
      "outputs": [
        {
          "name": "success",
          "type": "bool"
        }
      ],
      "payable": false,
      "stateMutability": "nonpayable",
      "type": "function"
    },
    {
      "constant": false,
      "inputs": [
        {
          "name": "_time",
          "type": "uint8"
        }
      ],
      "name": "setTimeForElectionInDays",
      "outputs": [],
      "payable": false,
      "stateMutability": "nonpayable",
      "type": "function"
    },
    {
      "constant": true,
      "inputs": [],
      "name": "hasClosed",
      "outputs": [
        {
          "name": "",
          "type": "bool"
        }
      ],
      "payable": false,
      "stateMutability": "view",
      "type": "function"
    },
    {
      "constant": false,
      "inputs": [
        {
          "name": "_categoryId",
          "type": "uint8"
        },
        {
          "name": "_name",
          "type": "string"
        }
      ],
      "name": "newCategory",
      "outputs": [
        {
          "name": "success",
          "type": "bool"
        }
      ],
      "payable": false,
      "stateMutability": "nonpayable",
      "type": "function"
    },
    {
      "constant": false,
      "inputs": [
        {
          "name": "_candidateId",
          "type": "uint8"
        },
        {
          "name": "_name",
          "type": "string"
        },
        {
          "name": "_categoryId",
          "type": "uint8"
        }
      ],
      "name": "addCandidate",
      "outputs": [],
      "payable": false,
      "stateMutability": "nonpayable",
      "type": "function"
    }
  ],
  "bytecode": "0x60806040526000600860006101000a81548160ff021916908360018111156200002457fe5b021790555033600860016101000a81548173ffffffffffffffffffffffffffffffffffffffff021916908373ffffffffffffffffffffffffffffffffffffffff1602179055503480156200007757600080fd5b50620000cb60036040805190810160405280600b81526020017f43616e6469646174652033000000000000000000000000000000000000000000815250600062000b3d640100000000026401000000009004565b6200011e60036040805190810160405280600b81526020017f43616e6469646174652033000000000000000000000000000000000000000000815250600162000b3d640100000000026401000000009004565b6200017160036040805190810160405280600b81526020017f43616e6469646174652033000000000000000000000000000000000000000000815250600262000b3d640100000000026401000000009004565b620001c460036040805190810160405280600b81526020017f43616e6469646174652033000000000000000000000000000000000000000000815250600362000b3d640100000000026401000000009004565b6200021760036040805190810160405280600b81526020017f43616e6469646174652033000000000000000000000000000000000000000000815250600462000b3d640100000000026401000000009004565b6200026a60036040805190810160405280600b81526020017f43616e6469646174652033000000000000000000000000000000000000000000815250600562000b3d640100000000026401000000009004565b620002bd60036040805190810160405280600b81526020017f43616e6469646174652033000000000000000000000000000000000000000000815250600662000b3d640100000000026401000000009004565b6200031060036040805190810160405280600b81526020017f43616e6469646174652033000000000000000000000000000000000000000000815250600762000b3d640100000000026401000000009004565b6200036360016040805190810160405280600b81526020017f43616e6469646174652031000000000000000000000000000000000000000000815250600062000b3d640100000000026401000000009004565b620003b660016040805190810160405280600b81526020017f43616e6469646174652031000000000000000000000000000000000000000000815250600162000b3d640100000000026401000000009004565b6200040960016040805190810160405280600b81526020017f43616e6469646174652031000000000000000000000000000000000000000000815250600262000b3d640100000000026401000000009004565b6200045c60016040805190810160405280600b81526020017f43616e6469646174652031000000000000000000000000000000000000000000815250600362000b3d640100000000026401000000009004565b620004af60016040805190810160405280600b81526020017f43616e6469646174652031000000000000000000000000000000000000000000815250600462000b3d640100000000026401000000009004565b6200050260016040805190810160405280600b81526020017f43616e6469646174652031000000000000000000000000000000000000000000815250600562000b3d640100000000026401000000009004565b6200055560016040805190810160405280600b81526020017f43616e6469646174652031000000000000000000000000000000000000000000815250600662000b3d640100000000026401000000009004565b620005a860016040805190810160405280600b81526020017f43616e6469646174652031000000000000000000000000000000000000000000815250600762000b3d640100000000026401000000009004565b620005fb60026040805190810160405280600b81526020017f43616e6469646174652032000000000000000000000000000000000000000000815250600062000b3d640100000000026401000000009004565b6200064e60026040805190810160405280600b81526020017f43616e6469646174652032000000000000000000000000000000000000000000815250600162000b3d640100000000026401000000009004565b620006a160026040805190810160405280600b81526020017f43616e6469646174652032000000000000000000000000000000000000000000815250600262000b3d640100000000026401000000009004565b620006f460026040805190810160405280600b81526020017f43616e6469646174652032000000000000000000000000000000000000000000815250600362000b3d640100000000026401000000009004565b6200074760026040805190810160405280600b81526020017f43616e6469646174652032000000000000000000000000000000000000000000815250600462000b3d640100000000026401000000009004565b6200079a60026040805190810160405280600b81526020017f43616e6469646174652032000000000000000000000000000000000000000000815250600562000b3d640100000000026401000000009004565b620007ed60026040805190810160405280600b81526020017f43616e6469646174652032000000000000000000000000000000000000000000815250600662000b3d640100000000026401000000009004565b6200084060026040805190810160405280600b81526020017f43616e6469646174652032000000000000000000000000000000000000000000815250600762000b3d640100000000026401000000009004565b6200089160006040805190810160405280601481526020017f4f766572616c6c2042657374205465616368657200000000000000000000000081525062000d20640100000000026401000000009004565b50620008e360016040805190810160405280601281526020017f4265737420416c74636f696e205069636b73000000000000000000000000000081525062000d20640100000000026401000000009004565b506200093560026040805190810160405280601b81526020017f42657374204775617264206f6e20426974636f696e205761746368000000000081525062000d20640100000000026401000000009004565b506200098760036040805190810160405280601681526020017f426573742049434f20436f6e747269627574696f6e730000000000000000000081525062000d20640100000000026401000000009004565b50620009d960046040805190810160405280601081526020017f4265737420464120416e616c797369730000000000000000000000000000000081525062000d20640100000000026401000000009004565b5062000a2b60056040805190810160405280602081526020017f426573742053686f742043616c6c6572206f6e204d617267696e20506c61797381525062000d20640100000000026401000000009004565b5062000aa46006606060405190810160405280602981526020017f4265737420436f6e747269627574696f6e7320746f20546f6f6c7320616e642081526020017f456475636174696f6e000000000000000000000000000000000000000000000081525062000d20640100000000026401000000009004565b5062000b1d6007606060405190810160405280602781526020017f47656e6572616c20506f73697469766520496e666c75656e6365206f6e20746881526020017f6520506f756e640000000000000000000000000000000000000000000000000081525062000d20640100000000026401000000009004565b504260058190555062015180600654026005540160048190555062000f7b565b600080600860019054906101000a900473ffffffffffffffffffffffffffffffffffffffff168073ffffffffffffffffffffffffffffffffffffffff163373ffffffffffffffffffffffffffffffffffffffff1614151562000c07576040517f08c379a00000000000000000000000000000000000000000000000000000000081526004018080602001828103825260168152602001807f53656e646572206e6f7420617574686f72697a65642e0000000000000000000081525060200191505060405180910390fd5b600092505b600882101562000c615760006001600084815260200190815260200160002060030160008860ff1681526020019081526020016000206000015414151562000c5357600192505b818060010192505062000c0c565b821562000c7b576003600081548092919060010191905055505b6060604051908101604052808760ff168152602001600060ff16815260200186815250600160008660ff16815260200190815260200160002060030160008860ff1681526020019081526020016000206000820151816000015560208201518160010160006101000a81548160ff021916908360ff160217905550604082015181600201908051906020019062000d1492919062000e45565b50905050505050505050565b6000600860019054906101000a900473ffffffffffffffffffffffffffffffffffffffff168073ffffffffffffffffffffffffffffffffffffffff163373ffffffffffffffffffffffffffffffffffffffff1614151562000de9576040517f08c379a00000000000000000000000000000000000000000000000000000000081526004018080602001828103825260168152602001807f53656e646572206e6f7420617574686f72697a65642e0000000000000000000081525060200191505060405180910390fd5b8360ff16600160008660ff1681526020019081526020016000206000018190555082600160008660ff168152602001908152602001600020600101908051906020019062000e3992919062000ecc565b50600191505092915050565b828054600181600116156101000203166002900490600052602060002090601f016020900481019282601f1062000e8857805160ff191683800117855562000eb9565b8280016001018555821562000eb9579182015b8281111562000eb857825182559160200191906001019062000e9b565b5b50905062000ec8919062000f53565b5090565b828054600181600116156101000203166002900490600052602060002090601f016020900481019282601f1062000f0f57805160ff191683800117855562000f40565b8280016001018555821562000f40579182015b8281111562000f3f57825182559160200191906001019062000f22565b5b50905062000f4f919062000f53565b5090565b62000f7891905b8082111562000f7457600081600090555060010162000f5a565b5090565b90565b6115738062000f8b6000396000f3006080604052600436106100fc576000357c0100000000000000000000000000000000000000000000000000000000900463ffffffff1680630a56b200146101015780631515bc2b146101c85780631bf806cb146101f75780632d35a8a2146102225780633477ee2e1461024d57806342f2ce02146103075780634c703a3e14610359578063591474a31461038457806370ab47e21461040757806375ded0ae14610437578063887b98b9146104c55780638da5cb5b14610575578063a3ec138d146105cc578063a6f9dae114610627578063b7db408c1461066a578063c040e6b814610717578063c1211c8614610750578063ce7ea1611461077b575b600080fd5b34801561010d57600080fd5b50610139600480360381019080803560ff169060200190929190803590602001909291905050506107a6565b60405180848152602001806020018360ff1660ff168152602001828103825284818151815260200191508051906020019080838360005b8381101561018b578082015181840152602081019050610170565b50505050905090810190601f1680156101b85780820380516001836020036101000a031916815260200191505b5094505050505060405180910390f35b3480156101d457600080fd5b506101dd6108eb565b604051808215151515815260200191505060405180910390f35b34801561020357600080fd5b5061020c6108f8565b6040518082815260200191505060405180910390f35b34801561022e57600080fd5b506102376108fe565b6040518082815260200191505060405180910390f35b34801561025957600080fd5b5061027860048036038101908080359060200190929190505050610904565b604051808481526020018360ff1660ff16815260200180602001828103825283818151815260200191508051906020019080838360005b838110156102ca5780820151818401526020810190506102af565b50505050905090810190601f1680156102f75780820380516001836020036101000a031916815260200191505b5094505050505060405180910390f35b34801561031357600080fd5b5061033f600480360381019080803560ff169060200190929190803590602001909291905050506109d3565b604051808215151515815260200191505060405180910390f35b34801561036557600080fd5b5061036e610c9a565b6040518082815260200191505060405180910390f35b34801561039057600080fd5b50610405600480360381019080803560ff169060200190929190803590602001908201803590602001908080601f0160208091040260200160405190810160405280939291908181526020018383808284378201915050505050509192919290803560ff169060200190929190505050610ca0565b005b34801561041357600080fd5b50610435600480360381019080803560ff169060200190929190505050610e7c565b005b34801561044357600080fd5b506104ab600480360381019080803560ff169060200190929190803590602001908201803590602001908080601f0160208091040260200160405190810160405280939291908181526020018383808284378201915050505050509192919290505050610f50565b604051808215151515815260200191505060405180910390f35b3480156104d157600080fd5b506104f3600480360381019080803560ff169060200190929190505050611072565b6040518080602001838152602001828103825284818151815260200191508051906020019080838360005b8381101561053957808201518184015260208101905061051e565b50505050905090810190601f1680156105665780820380516001836020036101000a031916815260200191505b50935050505060405180910390f35b34801561058157600080fd5b5061058a611151565b604051808273ffffffffffffffffffffffffffffffffffffffff1673ffffffffffffffffffffffffffffffffffffffff16815260200191505060405180910390f35b3480156105d857600080fd5b5061060d600480360381019080803573ffffffffffffffffffffffffffffffffffffffff169060200190929190505050611177565b604051808215151515815260200191505060405180910390f35b34801561063357600080fd5b50610668600480360381019080803573ffffffffffffffffffffffffffffffffffffffff169060200190929190505050611197565b005b34801561067657600080fd5b50610695600480360381019080803590602001909291905050506112a2565b6040518083815260200180602001828103825283818151815260200191508051906020019080838360005b838110156106db5780820151818401526020810190506106c0565b50505050905090810190601f1680156107085780820380516001836020036101000a031916815260200191505b50935050505060405180910390f35b34801561072357600080fd5b5061072c61135e565b6040518082600181111561073c57fe5b60ff16815260200191505060405180910390f35b34801561075c57600080fd5b50610765611371565b6040518082815260200191505060405180910390f35b34801561078757600080fd5b50610790611377565b6040518082815260200191505060405180910390f35b600060606000600160008660ff168152602001908152602001600020600301600085815260200190815260200160002060000154600160008760ff1681526020019081526020016000206003016000868152602001908152602001600020600201600160008860ff168152602001908152602001600020600301600087815260200190815260200160002060010160009054906101000a900460ff16818054600181600116156101000203166002900480601f0160208091040260200160405190810160405280929190818152602001828054600181600116156101000203166002900480156108d75780601f106108ac576101008083540402835291602001916108d7565b820191906000526020600020905b8154815290600101906020018083116108ba57829003601f168201915b505050505091509250925092509250925092565b6000600454421015905090565b60065481565b60035481565b60026020528060005260406000206000915090508060000154908060010160009054906101000a900460ff1690806002018054600181600116156101000203166002900480601f0160208091040260200160405190810160405280929190818152602001828054600181600116156101000203166002900480156109c95780601f1061099e576101008083540402835291602001916109c9565b820191906000526020600020905b8154815290600101906020018083116109ac57829003601f168201915b5050505050905083565b60008060018111156109e157fe5b600860009054906101000a900460ff1660018111156109fc57fe5b148015610a0b57506004544210155b15610a1957610a1861137d565b5b600180811115610a2557fe5b600860009054906101000a900460ff166001811115610a4057fe5b148015610a5257504260075460045401115b15610a6057610a5f61137d565b5b60006001811115610a6d57fe5b600860009054906101000a900460ff166001811115610a8857fe5b148015610a9757506005544210155b8015610aa557506004544211155b1515610ab057600080fd5b6000803373ffffffffffffffffffffffffffffffffffffffff1673ffffffffffffffffffffffffffffffffffffffff16815260200190815260200160002060009054906101000a900460ff16151515610b0857600080fd5b600082118015610b1a57506003548211155b1515610b2557600080fd5b6000600160008560ff168152602001908152602001600020600301600084815260200190815260200160002060010160009054906101000a900460ff1660ff161415610baf57600160008460ff1681526020019081526020016000206002018290806001815401808255809150509060018203906000526020600020016000909192909190915055505b600160008460ff1681526020019081526020016000206003016000838152602001908152602001600020600101600081819054906101000a900460ff168092919060010191906101000a81548160ff021916908360ff1602179055505060016000803373ffffffffffffffffffffffffffffffffffffffff1673ffffffffffffffffffffffffffffffffffffffff16815260200190815260200160002060006101000a81548160ff021916908315150217905550817ffff3c900d938d21d0990d786e819f29b8d05c1ef587b462b939609625b684b1660405160405180910390a26001905092915050565b60075481565b600080600860019054906101000a900473ffffffffffffffffffffffffffffffffffffffff168073ffffffffffffffffffffffffffffffffffffffff163373ffffffffffffffffffffffffffffffffffffffff16141515610d69576040517f08c379a00000000000000000000000000000000000000000000000000000000081526004018080602001828103825260168152602001807f53656e646572206e6f7420617574686f72697a65642e0000000000000000000081525060200191505060405180910390fd5b600092505b6008821015610dc05760006001600084815260200190815260200160002060030160008860ff16815260200190815260200160002060000154141515610db357600192505b8180600101925050610d6e565b8215610dd9576003600081548092919060010191905055505b6060604051908101604052808760ff168152602001600060ff16815260200186815250600160008660ff16815260200190815260200160002060030160008860ff1681526020019081526020016000206000820151816000015560208201518160010160006101000a81548160ff021916908360ff1602179055506040820151816002019080519060200190610e70929190611422565b50905050505050505050565b600860019054906101000a900473ffffffffffffffffffffffffffffffffffffffff168073ffffffffffffffffffffffffffffffffffffffff163373ffffffffffffffffffffffffffffffffffffffff16141515610f42576040517f08c379a00000000000000000000000000000000000000000000000000000000081526004018080602001828103825260168152602001807f53656e646572206e6f7420617574686f72697a65642e0000000000000000000081525060200191505060405180910390fd5b8160ff166006819055505050565b6000600860019054906101000a900473ffffffffffffffffffffffffffffffffffffffff168073ffffffffffffffffffffffffffffffffffffffff163373ffffffffffffffffffffffffffffffffffffffff16141515611018576040517f08c379a00000000000000000000000000000000000000000000000000000000081526004018080602001828103825260168152602001807f53656e646572206e6f7420617574686f72697a65642e0000000000000000000081525060200191505060405180910390fd5b8360ff16600160008660ff1681526020019081526020016000206000018190555082600160008660ff16815260200190815260200160002060010190805190602001906110669291906114a2565b50600191505092915050565b60606000600160008460ff168152602001908152602001600020600101600160008560ff16815260200190815260200160002060020180549050818054600181600116156101000203166002900480601f0160208091040260200160405190810160405280929190818152602001828054600181600116156101000203166002900480156111415780601f1061111657610100808354040283529160200191611141565b820191906000526020600020905b81548152906001019060200180831161112457829003601f168201915b5050505050915091509150915091565b600860019054906101000a900473ffffffffffffffffffffffffffffffffffffffff1681565b60006020528060005260406000206000915054906101000a900460ff1681565b600860019054906101000a900473ffffffffffffffffffffffffffffffffffffffff168073ffffffffffffffffffffffffffffffffffffffff163373ffffffffffffffffffffffffffffffffffffffff1614151561125d576040517f08c379a00000000000000000000000000000000000000000000000000000000081526004018080602001828103825260168152602001807f53656e646572206e6f7420617574686f72697a65642e0000000000000000000081525060200191505060405180910390fd5b81600860016101000a81548173ffffffffffffffffffffffffffffffffffffffff021916908373ffffffffffffffffffffffffffffffffffffffff1602179055505050565b6001602052806000526040600020600091509050806000015490806001018054600181600116156101000203166002900480601f0160208091040260200160405190810160405280929190818152602001828054600181600116156101000203166002900480156113545780601f1061132957610100808354040283529160200191611354565b820191906000526020600020905b81548152906001019060200180831161133757829003601f168201915b5050505050905082565b600860009054906101000a900460ff1681565b60055481565b60045481565b6001600860009054906101000a900460ff16600181111561139a57fe5b14156113d457600060018111156113ad57fe5b600860006101000a81548160ff021916908360018111156113ca57fe5b0217905550611420565b6001600860009054906101000a900460ff1660018111156113f157fe5b0160018111156113fd57fe5b600860006101000a81548160ff0219169083600181111561141a57fe5b02179055505b565b828054600181600116156101000203166002900490600052602060002090601f016020900481019282601f1061146357805160ff1916838001178555611491565b82800160010185558215611491579182015b82811115611490578251825591602001919060010190611475565b5b50905061149e9190611522565b5090565b828054600181600116156101000203166002900490600052602060002090601f016020900481019282601f106114e357805160ff1916838001178555611511565b82800160010185558215611511579182015b828111156115105782518255916020019190600101906114f5565b5b50905061151e9190611522565b5090565b61154491905b80821115611540576000816000905550600101611528565b5090565b905600a165627a7a723058205fb6aee50491853aed1bdadb4e90d95ceb7d8426e27005d7f29a8d86b2f362220029",
  "source": "pragma solidity ^0.4.2;\n\ncontract Election {\n\n    //Candidates\n    struct Candidate {\n        uint id;\n        uint8 voteCount;\n        string name;\n    }\n    //Question Categories\n    struct Categories {\n        uint id;\n        string name;\n        uint[] candidateList;\n        mapping(uint => Candidate) candidateStructs;\n    }\n\n    //Contract stages\n    enum Stages {\n        AcceptingBlindVotes,\n        RevealResults\n    }\n\n    // Store accounts that have voted\n    mapping(address => bool) public voters;\n    //Store Categories by Id\n    mapping(uint => Categories) public categoryStructs;\n    //Read/write candidates\n    mapping(uint => Candidate) public candidates;\n    //Store Candidates Count\n    uint public candidatesCount;\n    //Election start and Enddates initialized in constructor\n    uint public electionEnd;\n    uint public electionStart;\n    uint public electionDuration;\n    uint public revealResultDuration;\n    //Start with the voting stage\n    Stages public stage = Stages.AcceptingBlindVotes;\n    //Owner address\n    address public owner = msg.sender;\n\n    modifier onlyBy(address _account)\n    {\n        require(\n            msg.sender == _account,\n            \"Sender not authorized.\"\n        );\n        _;\n    }\n    function changeOwner(address _newOwner)\n            public\n            onlyBy(owner)\n    {\n        owner = _newOwner;\n    }\n\n    function getCategory(uint8 _categoryId)\n        public\n        view\n        returns(string name, uint candidateCount)\n    {\n        return(categoryStructs[_categoryId].name, categoryStructs[_categoryId].candidateList.length);\n    }\n\n    function getCandidateResultsAndInfoFromCategory(uint8 _categoryId, uint _candidateId)\n        public\n        view\n        returns(uint id, string name, uint8 voteCount)\n    {\n        return(\n            categoryStructs[_categoryId].candidateStructs[_candidateId].id,\n            categoryStructs[_categoryId].candidateStructs[_candidateId].name,\n            categoryStructs[_categoryId].candidateStructs[_candidateId].voteCount\n            );\n    }\n\n    function addVoteForCandidateInCategory(uint8 _categoryId, uint _candidateId)\n        public\n        timedTransition\n        onlyWhileAcceptingVotes\n        returns(bool success)\n    {\n        //Make sure voters only vote once\n        require(!voters[msg.sender]);\n        //Make sure candidate is valid\n        require(_candidateId > 0 && _candidateId <= candidatesCount);\n        if(categoryStructs[_categoryId].candidateStructs[_candidateId].voteCount == 0) {\n            categoryStructs[_categoryId].candidateList.push(_candidateId);\n        }\n        categoryStructs[_categoryId].candidateStructs[_candidateId].voteCount++;\n        // record that voter has voted\n        voters[msg.sender] = true;\n        // trigger voted event\n        votedEvent(_candidateId); //@TODO: to test this\n        return true;\n    }\n\n\n\n    function Election () public {\n        /* for(uint8 i=0; i) */\n        addCandidate(3, \"Candidate 3\", 0);\n        addCandidate(3, \"Candidate 3\", 1);\n        addCandidate(3, \"Candidate 3\", 2);\n        addCandidate(3, \"Candidate 3\", 3);\n        addCandidate(3, \"Candidate 3\", 4);\n        addCandidate(3, \"Candidate 3\", 5);\n        addCandidate(3, \"Candidate 3\", 6);\n        addCandidate(3, \"Candidate 3\", 7);\n\n        addCandidate(1, \"Candidate 1\", 0);\n        addCandidate(1, \"Candidate 1\", 1);\n        addCandidate(1, \"Candidate 1\", 2);\n        addCandidate(1, \"Candidate 1\", 3);\n        addCandidate(1, \"Candidate 1\", 4);\n        addCandidate(1, \"Candidate 1\", 5);\n        addCandidate(1, \"Candidate 1\", 6);\n        addCandidate(1, \"Candidate 1\", 7);\n\n        addCandidate(2, \"Candidate 2\", 0);\n        addCandidate(2, \"Candidate 2\", 1);\n        addCandidate(2, \"Candidate 2\", 2);\n        addCandidate(2, \"Candidate 2\", 3);\n        addCandidate(2, \"Candidate 2\", 4);\n        addCandidate(2, \"Candidate 2\", 5);\n        addCandidate(2, \"Candidate 2\", 6);\n        addCandidate(2, \"Candidate 2\", 7);\n\n        //Initialize voting categories\n        newCategory(0, \"Overall Best Teacher\");\n        newCategory(1, \"Best Altcoin Picks\");\n        newCategory(2, \"Best Guard on Bitcoin Watch\");\n        newCategory(3, \"Best ICO Contributions\");\n        newCategory(4, \"Best FA Analysis\");\n        newCategory(5, \"Best Shot Caller on Margin Plays\");\n        newCategory(6, \"Best Contributions to Tools and Education\");\n        newCategory(7, \"General Positive Influence on the Pound\");\n\n        //Set the voting period\n        electionStart = now;\n        electionEnd = electionStart + electionDuration * 1 days;\n    }\n\n    function setTimeForElectionInDays(uint8 _time)\n        external\n        onlyBy(owner)\n    {\n        electionDuration = _time;\n    }\n\n    /**\n     * Promotes contract into the next stage.\n     * Start with phase 0 again once RevealResults is complete\n     */\n    function nextStage() internal {\n        //Loop through stages and start again when RevealResults is done\n        if(uint(stage) == 1) {\n            stage = Stages(0);\n        } else {\n            stage = Stages(uint(stage) + 1);\n        }\n    }\n\n    /**\n     * Creates a timed transition into the next contract stage\n     */\n    modifier timedTransition() {\n        //Close contract once election period ends\n        if(stage == Stages.AcceptingBlindVotes\n            && now >= (electionEnd)) {\n                nextStage();\n        }\n\n        //Reset into AcceptingBlindVotes once RevealResults duration has passed\n        if(stage == Stages.RevealResults && electionEnd + revealResultDuration > now) {\n\n            nextStage();\n        }\n        _;\n    }\n\n    /**\n     * Reverts if date is not in voting range\n     */\n    modifier onlyWhileAcceptingVotes() {\n        require(stage == Stages.AcceptingBlindVotes\n            && now >= electionStart\n            && now <= electionEnd);\n        _;\n    }\n\n    event votedEvent (\n        uint indexed _candidateId\n    );\n\n    /**\n     * Checks whether the period in which votes are allowd has already elapsed.\n     * @return Whether voting period has elapsed\n     */\n    function hasClosed() public view returns (bool) {\n        return now >= (electionEnd);\n    }\n\n    function newCategory(uint8 _categoryId, string _name)\n        onlyBy(owner)\n        returns(bool success)\n    {\n        // not checking for duplicates\n        categoryStructs[_categoryId].id = _categoryId;\n        categoryStructs[_categoryId].name = _name;\n        //categoriesList.push(_categoryId);\n        return true;\n    }\n\n    function addCandidate (uint8 _candidateId, string _name, uint8 _categoryId)\n        public\n        onlyBy(owner)\n    {\n        bool isCandidate = false;\n        for(uint i; i<8; i++) {\n            if(categoryStructs[i].candidateStructs[_candidateId].id != 0) {\n                isCandidate = true;\n            }\n        }\n        if(isCandidate) {\n            candidatesCount++;\n        }\n        categoryStructs[_categoryId].candidateStructs[_candidateId] = Candidate(_candidateId, 0, _name);\n    }\n\n    //@TODO: only owner einfgen\n    //@TODO: time flexibel setzen\n    /* function setTimeForElectionInDays() external (uint8 _time) {\n        electionTime = _time;\n    }\n     */\n    /* function electionTimeIsUp() external view returns (bool) {\n        return (now >= (electionStart + electionTime));\n    } */\n}\n\n//Election.deployed().then(function(i) {app=i})\n//app.vote(2, {from: web3.eth.accounts[0]})\n",
  "sourcePath": "/Volumes/Macintosh HD/Development/Crypto/pound-election/contracts/Election.sol",
  "compiler": {
    "name": "solc",
    "version": "0.4.24+commit.e67f0147.Emscripten.clang"
  },
  "schemaVersion": "2.0.0",
  "updatedAt": "2018-07-05T08:05:54.277Z"
}